{
  "contractName": "Nftraries",
  "abi": [
    {
      "inputs": [],
      "stateMutability": "nonpayable",
      "type": "constructor"
    },
    {
      "inputs": [
        {
          "internalType": "uint256",
          "name": "",
          "type": "uint256"
        }
      ],
      "name": "drops",
      "outputs": [
        {
          "internalType": "string",
          "name": "imageUri",
          "type": "string"
        },
        {
          "internalType": "string",
          "name": "name",
          "type": "string"
        },
        {
          "internalType": "string",
          "name": "description",
          "type": "string"
        },
        {
          "internalType": "string",
          "name": "social_1",
          "type": "string"
        },
        {
          "internalType": "string",
          "name": "social_2",
          "type": "string"
        },
        {
          "internalType": "string",
          "name": "websiteUri",
          "type": "string"
        },
        {
          "internalType": "string",
          "name": "price",
          "type": "string"
        },
        {
          "internalType": "uint16",
          "name": "supply",
          "type": "uint16"
        },
        {
          "internalType": "uint256",
          "name": "presale",
          "type": "uint256"
        },
        {
          "internalType": "uint256",
          "name": "sale",
          "type": "uint256"
        },
        {
          "internalType": "uint8",
          "name": "chain",
          "type": "uint8"
        },
        {
          "internalType": "bool",
          "name": "approved",
          "type": "bool"
        }
      ],
      "stateMutability": "view",
      "type": "function",
      "constant": true
    },
    {
      "inputs": [],
      "name": "owner",
      "outputs": [
        {
          "internalType": "address",
          "name": "",
          "type": "address"
        }
      ],
      "stateMutability": "view",
      "type": "function",
      "constant": true
    },
    {
      "inputs": [
        {
          "internalType": "uint256",
          "name": "",
          "type": "uint256"
        }
      ],
      "name": "users",
      "outputs": [
        {
          "internalType": "address",
          "name": "",
          "type": "address"
        }
      ],
      "stateMutability": "view",
      "type": "function",
      "constant": true
    },
    {
      "inputs": [],
      "name": "getDrops",
      "outputs": [
        {
          "components": [
            {
              "internalType": "string",
              "name": "imageUri",
              "type": "string"
            },
            {
              "internalType": "string",
              "name": "name",
              "type": "string"
            },
            {
              "internalType": "string",
              "name": "description",
              "type": "string"
            },
            {
              "internalType": "string",
              "name": "social_1",
              "type": "string"
            },
            {
              "internalType": "string",
              "name": "social_2",
              "type": "string"
            },
            {
              "internalType": "string",
              "name": "websiteUri",
              "type": "string"
            },
            {
              "internalType": "string",
              "name": "price",
              "type": "string"
            },
            {
              "internalType": "uint16",
              "name": "supply",
              "type": "uint16"
            },
            {
              "internalType": "uint256",
              "name": "presale",
              "type": "uint256"
            },
            {
              "internalType": "uint256",
              "name": "sale",
              "type": "uint256"
            },
            {
              "internalType": "uint8",
              "name": "chain",
              "type": "uint8"
            },
            {
              "internalType": "bool",
              "name": "approved",
              "type": "bool"
            }
          ],
          "internalType": "struct Nftraries.Drop[]",
          "name": "",
          "type": "tuple[]"
        }
      ],
      "stateMutability": "view",
      "type": "function",
      "constant": true
    },
    {
      "inputs": [
        {
          "components": [
            {
              "internalType": "string",
              "name": "imageUri",
              "type": "string"
            },
            {
              "internalType": "string",
              "name": "name",
              "type": "string"
            },
            {
              "internalType": "string",
              "name": "description",
              "type": "string"
            },
            {
              "internalType": "string",
              "name": "social_1",
              "type": "string"
            },
            {
              "internalType": "string",
              "name": "social_2",
              "type": "string"
            },
            {
              "internalType": "string",
              "name": "websiteUri",
              "type": "string"
            },
            {
              "internalType": "string",
              "name": "price",
              "type": "string"
            },
            {
              "internalType": "uint16",
              "name": "supply",
              "type": "uint16"
            },
            {
              "internalType": "uint256",
              "name": "presale",
              "type": "uint256"
            },
            {
              "internalType": "uint256",
              "name": "sale",
              "type": "uint256"
            },
            {
              "internalType": "uint8",
              "name": "chain",
              "type": "uint8"
            },
            {
              "internalType": "bool",
              "name": "approved",
              "type": "bool"
            }
          ],
          "internalType": "struct Nftraries.Drop",
          "name": "_drop",
          "type": "tuple"
        }
      ],
      "name": "addDrop",
      "outputs": [],
      "stateMutability": "nonpayable",
      "type": "function"
    },
    {
      "inputs": [
        {
          "internalType": "uint256",
          "name": "_index",
          "type": "uint256"
        },
        {
          "components": [
            {
              "internalType": "string",
              "name": "imageUri",
              "type": "string"
            },
            {
              "internalType": "string",
              "name": "name",
              "type": "string"
            },
            {
              "internalType": "string",
              "name": "description",
              "type": "string"
            },
            {
              "internalType": "string",
              "name": "social_1",
              "type": "string"
            },
            {
              "internalType": "string",
              "name": "social_2",
              "type": "string"
            },
            {
              "internalType": "string",
              "name": "websiteUri",
              "type": "string"
            },
            {
              "internalType": "string",
              "name": "price",
              "type": "string"
            },
            {
              "internalType": "uint16",
              "name": "supply",
              "type": "uint16"
            },
            {
              "internalType": "uint256",
              "name": "presale",
              "type": "uint256"
            },
            {
              "internalType": "uint256",
              "name": "sale",
              "type": "uint256"
            },
            {
              "internalType": "uint8",
              "name": "chain",
              "type": "uint8"
            },
            {
              "internalType": "bool",
              "name": "approved",
              "type": "bool"
            }
          ],
          "internalType": "struct Nftraries.Drop",
          "name": "_drop",
          "type": "tuple"
        }
      ],
      "name": "updateDrop",
      "outputs": [],
      "stateMutability": "nonpayable",
      "type": "function"
    },
    {
      "inputs": [
        {
          "internalType": "uint256",
          "name": "_index",
          "type": "uint256"
        }
      ],
      "name": "approveDrop",
      "outputs": [],
      "stateMutability": "nonpayable",
      "type": "function"
    }
  ],
  "bytecode": "0x608060405234801561001057600080fd5b50336000806101000a81548173ffffffffffffffffffffffffffffffffffffffff021916908373ffffffffffffffffffffffffffffffffffffffff160217905550611c69806100606000396000f3fe608060405234801561001057600080fd5b506004361061007d5760003560e01c80638272d6d41161005b5780638272d6d4146101095780638691afb5146101255780638da5cb5b14610143578063cae44e29146101615761007d565b8063365b98b2146100825780635eb39968146100b25780636e2a9c05146100ed575b600080fd5b61009c600480360381019061009791906110c6565b61017d565b6040516100a99190611134565b60405180910390f35b6100cc60048036038101906100c791906110c6565b6101b0565b6040516100e49c9b9a9998979695949392919061124b565b60405180910390f35b610107600480360381019061010291906116df565b610600565b005b610123600480360381019061011e91906110c6565b610824565b005b61012d6108f9565b60405161013a91906119b1565b60405180910390f35b61014b610dc3565b6040516101589190611134565b60405180910390f35b61017b600480360381019061017691906119d3565b610de7565b005b60026020528060005260406000206000915054906101000a900473ffffffffffffffffffffffffffffffffffffffff1681565b600181815481106101c057600080fd5b90600052602060002090600b02016000915090508060000180546101e390611a4b565b80601f016020809104026020016040519081016040528092919081815260200182805461020f90611a4b565b801561025c5780601f106102315761010080835404028352916020019161025c565b820191906000526020600020905b81548152906001019060200180831161023f57829003601f168201915b50505050509080600101805461027190611a4b565b80601f016020809104026020016040519081016040528092919081815260200182805461029d90611a4b565b80156102ea5780601f106102bf576101008083540402835291602001916102ea565b820191906000526020600020905b8154815290600101906020018083116102cd57829003601f168201915b5050505050908060020180546102ff90611a4b565b80601f016020809104026020016040519081016040528092919081815260200182805461032b90611a4b565b80156103785780601f1061034d57610100808354040283529160200191610378565b820191906000526020600020905b81548152906001019060200180831161035b57829003601f168201915b50505050509080600301805461038d90611a4b565b80601f01602080910402602001604051908101604052809291908181526020018280546103b990611a4b565b80156104065780601f106103db57610100808354040283529160200191610406565b820191906000526020600020905b8154815290600101906020018083116103e957829003601f168201915b50505050509080600401805461041b90611a4b565b80601f016020809104026020016040519081016040528092919081815260200182805461044790611a4b565b80156104945780601f1061046957610100808354040283529160200191610494565b820191906000526020600020905b81548152906001019060200180831161047757829003601f168201915b5050505050908060050180546104a990611a4b565b80601f01602080910402602001604051908101604052809291908181526020018280546104d590611a4b565b80156105225780601f106104f757610100808354040283529160200191610522565b820191906000526020600020905b81548152906001019060200180831161050557829003601f168201915b50505050509080600601805461053790611a4b565b80601f016020809104026020016040519081016040528092919081815260200182805461056390611a4b565b80156105b05780601f10610585576101008083540402835291602001916105b0565b820191906000526020600020905b81548152906001019060200180831161059357829003601f168201915b5050505050908060070160009054906101000a900461ffff169080600801549080600901549080600a0160009054906101000a900460ff169080600a0160019054906101000a900460ff1690508c565b6002600083815260200190815260200160002060009054906101000a900473ffffffffffffffffffffffffffffffffffffffff1673ffffffffffffffffffffffffffffffffffffffff163373ffffffffffffffffffffffffffffffffffffffff16146106a1576040517f08c379a000000000000000000000000000000000000000000000000000000000815260040161069890611aef565b60405180910390fd5b60008161016001901515908115158152505080600183815481106106c8576106c7611b0f565b5b90600052602060002090600b020160008201518160000190805190602001906106f2929190610fd9565b50602082015181600101908051906020019061070f929190610fd9565b50604082015181600201908051906020019061072c929190610fd9565b506060820151816003019080519060200190610749929190610fd9565b506080820151816004019080519060200190610766929190610fd9565b5060a0820151816005019080519060200190610783929190610fd9565b5060c08201518160060190805190602001906107a0929190610fd9565b5060e08201518160070160006101000a81548161ffff021916908361ffff1602179055506101008201518160080155610120820151816009015561014082015181600a0160006101000a81548160ff021916908360ff16021790555061016082015181600a0160016101000a81548160ff0219169083151502179055509050505050565b60008054906101000a900473ffffffffffffffffffffffffffffffffffffffff1673ffffffffffffffffffffffffffffffffffffffff163373ffffffffffffffffffffffffffffffffffffffff16146108b2576040517f08c379a00000000000000000000000000000000000000000000000000000000081526004016108a990611bb0565b60405180910390fd5b6000600182815481106108c8576108c7611b0f565b5b90600052602060002090600b02019050600181600a0160016101000a81548160ff0219169083151502179055505050565b60606001805480602002602001604051908101604052809291908181526020016000905b82821015610dba57838290600052602060002090600b02016040518061018001604052908160008201805461095190611a4b565b80601f016020809104026020016040519081016040528092919081815260200182805461097d90611a4b565b80156109ca5780601f1061099f576101008083540402835291602001916109ca565b820191906000526020600020905b8154815290600101906020018083116109ad57829003601f168201915b505050505081526020016001820180546109e390611a4b565b80601f0160208091040260200160405190810160405280929190818152602001828054610a0f90611a4b565b8015610a5c5780601f10610a3157610100808354040283529160200191610a5c565b820191906000526020600020905b815481529060010190602001808311610a3f57829003601f168201915b50505050508152602001600282018054610a7590611a4b565b80601f0160208091040260200160405190810160405280929190818152602001828054610aa190611a4b565b8015610aee5780601f10610ac357610100808354040283529160200191610aee565b820191906000526020600020905b815481529060010190602001808311610ad157829003601f168201915b50505050508152602001600382018054610b0790611a4b565b80601f0160208091040260200160405190810160405280929190818152602001828054610b3390611a4b565b8015610b805780601f10610b5557610100808354040283529160200191610b80565b820191906000526020600020905b815481529060010190602001808311610b6357829003601f168201915b50505050508152602001600482018054610b9990611a4b565b80601f0160208091040260200160405190810160405280929190818152602001828054610bc590611a4b565b8015610c125780601f10610be757610100808354040283529160200191610c12565b820191906000526020600020905b815481529060010190602001808311610bf557829003601f168201915b50505050508152602001600582018054610c2b90611a4b565b80601f0160208091040260200160405190810160405280929190818152602001828054610c5790611a4b565b8015610ca45780601f10610c7957610100808354040283529160200191610ca4565b820191906000526020600020905b815481529060010190602001808311610c8757829003601f168201915b50505050508152602001600682018054610cbd90611a4b565b80601f0160208091040260200160405190810160405280929190818152602001828054610ce990611a4b565b8015610d365780601f10610d0b57610100808354040283529160200191610d36565b820191906000526020600020905b815481529060010190602001808311610d1957829003601f168201915b505050505081526020016007820160009054906101000a900461ffff1661ffff1661ffff1681526020016008820154815260200160098201548152602001600a820160009054906101000a900460ff1660ff1660ff168152602001600a820160019054906101000a900460ff1615151515815250508152602001906001019061091d565b50505050905090565b60008054906101000a900473ffffffffffffffffffffffffffffffffffffffff1681565b60008161016001901515908115158152505060018190806001815401808255809150506001900390600052602060002090600b02016000909190919091506000820151816000019080519060200190610e41929190610fd9565b506020820151816001019080519060200190610e5e929190610fd9565b506040820151816002019080519060200190610e7b929190610fd9565b506060820151816003019080519060200190610e98929190610fd9565b506080820151816004019080519060200190610eb5929190610fd9565b5060a0820151816005019080519060200190610ed2929190610fd9565b5060c0820151816006019080519060200190610eef929190610fd9565b5060e08201518160070160006101000a81548161ffff021916908361ffff1602179055506101008201518160080155610120820151816009015561014082015181600a0160006101000a81548160ff021916908360ff16021790555061016082015181600a0160016101000a81548160ff0219169083151502179055505050600060018080549050610f819190611bff565b9050336002600083815260200190815260200160002060006101000a81548173ffffffffffffffffffffffffffffffffffffffff021916908373ffffffffffffffffffffffffffffffffffffffff1602179055505050565b828054610fe590611a4b565b90600052602060002090601f016020900481019282611007576000855561104e565b82601f1061102057805160ff191683800117855561104e565b8280016001018555821561104e579182015b8281111561104d578251825591602001919060010190611032565b5b50905061105b919061105f565b5090565b5b80821115611078576000816000905550600101611060565b5090565b6000604051905090565b600080fd5b600080fd5b6000819050919050565b6110a381611090565b81146110ae57600080fd5b50565b6000813590506110c08161109a565b92915050565b6000602082840312156110dc576110db611086565b5b60006110ea848285016110b1565b91505092915050565b600073ffffffffffffffffffffffffffffffffffffffff82169050919050565b600061111e826110f3565b9050919050565b61112e81611113565b82525050565b60006020820190506111496000830184611125565b92915050565b600081519050919050565b600082825260208201905092915050565b60005b8381101561118957808201518184015260208101905061116e565b83811115611198576000848401525b50505050565b6000601f19601f8301169050919050565b60006111ba8261114f565b6111c4818561115a565b93506111d481856020860161116b565b6111dd8161119e565b840191505092915050565b600061ffff82169050919050565b6111ff816111e8565b82525050565b61120e81611090565b82525050565b600060ff82169050919050565b61122a81611214565b82525050565b60008115159050919050565b61124581611230565b82525050565b6000610180820190508181036000830152611266818f6111af565b9050818103602083015261127a818e6111af565b9050818103604083015261128e818d6111af565b905081810360608301526112a2818c6111af565b905081810360808301526112b6818b6111af565b905081810360a08301526112ca818a6111af565b905081810360c08301526112de81896111af565b90506112ed60e08301886111f6565b6112fb610100830187611205565b611309610120830186611205565b611317610140830185611221565b61132561016083018461123c565b9d9c50505050505050505050505050565b600080fd5b7f4e487b7100000000000000000000000000000000000000000000000000000000600052604160045260246000fd5b6113738261119e565b810181811067ffffffffffffffff821117156113925761139161133b565b5b80604052505050565b60006113a561107c565b90506113b1828261136a565b919050565b600080fd5b600080fd5b600080fd5b600067ffffffffffffffff8211156113e0576113df61133b565b5b6113e98261119e565b9050602081019050919050565b82818337600083830152505050565b6000611418611413846113c5565b61139b565b905082815260208101848484011115611434576114336113c0565b5b61143f8482856113f6565b509392505050565b600082601f83011261145c5761145b6113bb565b5b813561146c848260208601611405565b91505092915050565b61147e816111e8565b811461148957600080fd5b50565b60008135905061149b81611475565b92915050565b6114aa81611214565b81146114b557600080fd5b50565b6000813590506114c7816114a1565b92915050565b6114d681611230565b81146114e157600080fd5b50565b6000813590506114f3816114cd565b92915050565b600061018082840312156115105761150f611336565b5b61151b61018061139b565b9050600082013567ffffffffffffffff81111561153b5761153a6113b6565b5b61154784828501611447565b600083015250602082013567ffffffffffffffff81111561156b5761156a6113b6565b5b61157784828501611447565b602083015250604082013567ffffffffffffffff81111561159b5761159a6113b6565b5b6115a784828501611447565b604083015250606082013567ffffffffffffffff8111156115cb576115ca6113b6565b5b6115d784828501611447565b606083015250608082013567ffffffffffffffff8111156115fb576115fa6113b6565b5b61160784828501611447565b60808301525060a082013567ffffffffffffffff81111561162b5761162a6113b6565b5b61163784828501611447565b60a08301525060c082013567ffffffffffffffff81111561165b5761165a6113b6565b5b61166784828501611447565b60c08301525060e061167b8482850161148c565b60e083015250610100611690848285016110b1565b610100830152506101206116a6848285016110b1565b610120830152506101406116bc848285016114b8565b610140830152506101606116d2848285016114e4565b6101608301525092915050565b600080604083850312156116f6576116f5611086565b5b6000611704858286016110b1565b925050602083013567ffffffffffffffff8111156117255761172461108b565b5b611731858286016114f9565b9150509250929050565b600081519050919050565b600082825260208201905092915050565b6000819050602082019050919050565b600082825260208201905092915050565b60006117838261114f565b61178d8185611767565b935061179d81856020860161116b565b6117a68161119e565b840191505092915050565b6117ba816111e8565b82525050565b6117c981611090565b82525050565b6117d881611214565b82525050565b6117e781611230565b82525050565b600061018083016000830151848203600086015261180b8282611778565b915050602083015184820360208601526118258282611778565b9150506040830151848203604086015261183f8282611778565b915050606083015184820360608601526118598282611778565b915050608083015184820360808601526118738282611778565b91505060a083015184820360a086015261188d8282611778565b91505060c083015184820360c08601526118a78282611778565b91505060e08301516118bc60e08601826117b1565b506101008301516118d16101008601826117c0565b506101208301516118e66101208601826117c0565b506101408301516118fb6101408601826117cf565b506101608301516119106101608601826117de565b508091505092915050565b600061192783836117ed565b905092915050565b6000602082019050919050565b60006119478261173b565b6119518185611746565b93508360208202850161196385611757565b8060005b8581101561199f5784840389528151611980858261191b565b945061198b8361192f565b925060208a01995050600181019050611967565b50829750879550505050505092915050565b600060208201905081810360008301526119cb818461193c565b905092915050565b6000602082840312156119e9576119e8611086565b5b600082013567ffffffffffffffff811115611a0757611a0661108b565b5b611a13848285016114f9565b91505092915050565b7f4e487b7100000000000000000000000000000000000000000000000000000000600052602260045260246000fd5b60006002820490506001821680611a6357607f821691505b60208210811415611a7757611a76611a1c565b5b50919050565b7f596f7520617265206e6f7420746865206f776e6572206f66207468697320647260008201527f6f70000000000000000000000000000000000000000000000000000000000000602082015250565b6000611ad960228361115a565b9150611ae482611a7d565b604082019050919050565b60006020820190508181036000830152611b0881611acc565b9050919050565b7f4e487b7100000000000000000000000000000000000000000000000000000000600052603260045260246000fd5b7f596f7520617265206e6f7420746865206f776e6572206f66207468697320636f60008201527f6e74726163740000000000000000000000000000000000000000000000000000602082015250565b6000611b9a60268361115a565b9150611ba582611b3e565b604082019050919050565b60006020820190508181036000830152611bc981611b8d565b9050919050565b7f4e487b7100000000000000000000000000000000000000000000000000000000600052601160045260246000fd5b6000611c0a82611090565b9150611c1583611090565b925082821015611c2857611c27611bd0565b5b82820390509291505056fea26469706673582212202a37b1041cd6239d0de141ded393900d1227bee0690609c7df08c73a35913ba064736f6c634300080a0033",
  "immutableReferences": {},
  "source": "// SPDX-License-Identifier: MIT\r\n\r\npragma solidity ^0.8.0;\r\n\r\ncontract Nftraries {\r\n    address public owner;\r\n    //Define a Nft drop object\r\n    struct Drop {\r\n        string imageUri;\r\n        string name;\r\n        string description;\r\n        string social_1;\r\n        string social_2;\r\n        string websiteUri;\r\n        string price;\r\n        uint16 supply;\r\n        uint256 presale;\r\n        uint256 sale;\r\n        uint8 chain;\r\n        bool approved;\r\n    }\r\n\r\n    // Create a list that holds all the drop objects\r\n\r\n    Drop[] public drops;\r\n    mapping(uint256 => address) public users;\r\n\r\n    constructor() {\r\n        owner = msg.sender;\r\n    }\r\n\r\n    modifier onlyOwner{\r\n        require(msg.sender == owner, \"You are not the owner of this contract\");\r\n        _;\r\n    }\r\n\r\n    // Get the NT drop objects list\r\n    function getDrops() public view returns (Drop[] memory) {\r\n        return drops;\r\n    }\r\n\r\n    //Add to the NFT drop objects list\r\n    function addDrop(Drop memory _drop) public {\r\n        _drop.approved = false;\r\n        drops.push( _drop);\r\n        uint256 id = drops.length - 1;\r\n        users[id] = msg.sender;\r\n    }\r\n\r\n    //Update existing drop\r\n      function updateDrop(\r\n        uint256 _index,\r\n        Drop memory _drop\r\n      ) public {\r\n        require(msg.sender == users[_index], \"You are not the owner of this drop\");\r\n        _drop.approved = false;\r\n        drops[_index] = (_drop);\r\n    }\r\n\r\n    function approveDrop(uint256 _index) public onlyOwner{\r\n        Drop storage drop = drops[_index];\r\n        drop.approved = true;\r\n    }\r\n}\r\n",
  "sourcePath": "C:\\Users\\USER\\Desktop\\projects\\nftraries\\src\\app\\contract\\nftraries\\contracts\\nftraries.sol",
  "compiler": {
    "name": "solc",
    "version": "0.8.10+commit.fc410830.Emscripten.clang"
  },
  "schemaVersion": "3.4.3",
  "updatedAt": "2022-02-12T00:09:52.685Z",
  "networkType": "ethereum",
  "devdoc": {
    "kind": "dev",
    "methods": {},
    "version": 1
  },
  "userdoc": {
    "kind": "user",
    "methods": {},
    "version": 1
  }
}